{
  "contractName": "CrossBorderPayment",
  "abi": [
    {
      "constant": true,
      "inputs": [
        {
          "name": "",
          "type": "address"
        }
      ],
      "name": "balances",
      "outputs": [
        {
          "name": "",
          "type": "uint256"
        }
      ],
      "payable": false,
      "stateMutability": "view",
      "type": "function"
    },
    {
      "constant": true,
      "inputs": [],
      "name": "owner",
      "outputs": [
        {
          "name": "",
          "type": "address"
        }
      ],
      "payable": false,
      "stateMutability": "view",
      "type": "function"
    },
    {
      "inputs": [],
      "payable": false,
      "stateMutability": "nonpayable",
      "type": "constructor"
    },
    {
      "payable": true,
      "stateMutability": "payable",
      "type": "fallback"
    },
    {
      "anonymous": false,
      "inputs": [
        {
          "indexed": true,
          "name": "user",
          "type": "address"
        },
        {
          "indexed": false,
          "name": "amount",
          "type": "uint256"
        }
      ],
      "name": "Deposit",
      "type": "event"
    },
    {
      "anonymous": false,
      "inputs": [
        {
          "indexed": true,
          "name": "from",
          "type": "address"
        },
        {
          "indexed": true,
          "name": "to",
          "type": "address"
        },
        {
          "indexed": false,
          "name": "amount",
          "type": "uint256"
        }
      ],
      "name": "Transfer",
      "type": "event"
    },
    {
      "constant": false,
      "inputs": [],
      "name": "deposit",
      "outputs": [],
      "payable": true,
      "stateMutability": "payable",
      "type": "function"
    },
    {
      "constant": false,
      "inputs": [
        {
          "name": "recipient",
          "type": "address"
        },
        {
          "name": "amount",
          "type": "uint256"
        }
      ],
      "name": "transferTo",
      "outputs": [],
      "payable": false,
      "stateMutability": "nonpayable",
      "type": "function"
    },
    {
      "constant": true,
      "inputs": [],
      "name": "getContractBalance",
      "outputs": [
        {
          "name": "",
          "type": "uint256"
        }
      ],
      "payable": false,
      "stateMutability": "view",
      "type": "function"
    }
  ],
  "bytecode": "0x608060405234801561001057600080fd5b50336000806101000a81548173ffffffffffffffffffffffffffffffffffffffff021916908373ffffffffffffffffffffffffffffffffffffffff1602179055506105ac806100606000396000f3fe608060405260043610610067576000357c01000000000000000000000000000000000000000000000000000000009004806327e235e3146100715780632ccb1b30146100d65780636f9fb98a146101315780638da5cb5b1461015c578063d0e30db0146101b3575b61006f6101bd565b005b34801561007d57600080fd5b506100c06004803603602081101561009457600080fd5b81019080803573ffffffffffffffffffffffffffffffffffffffff1690602001909291905050506102f8565b6040518082815260200191505060405180910390f35b3480156100e257600080fd5b5061012f600480360360408110156100f957600080fd5b81019080803573ffffffffffffffffffffffffffffffffffffffff16906020019092919080359060200190929190505050610310565b005b34801561013d57600080fd5b5061014661053c565b6040518082815260200191505060405180910390f35b34801561016857600080fd5b5061017161055b565b604051808273ffffffffffffffffffffffffffffffffffffffff1673ffffffffffffffffffffffffffffffffffffffff16815260200191505060405180910390f35b6101bb6101bd565b005b60003411151561025b576040517f08c379a00000000000000000000000000000000000000000000000000000000081526004018080602001828103825260258152602001807f4465706f73697420616d6f756e74206d7573742062652067726561746572207481526020017f68616e203000000000000000000000000000000000000000000000000000000081525060400191505060405180910390fd5b34600160003373ffffffffffffffffffffffffffffffffffffffff1673ffffffffffffffffffffffffffffffffffffffff168152602001908152602001600020600082825401925050819055503373ffffffffffffffffffffffffffffffffffffffff167fe1fffcc4923d04b559f4d29a8bfc6cda04eb5b0d3c460751c2402c5c5cc9109c346040518082815260200191505060405180910390a2565b60016020528060005260406000206000915090505481565b80600160003373ffffffffffffffffffffffffffffffffffffffff1673ffffffffffffffffffffffffffffffffffffffff16815260200190815260200160002054101515156103c7576040517f08c379a00000000000000000000000000000000000000000000000000000000081526004018080602001828103825260148152602001807f496e73756666696369656e742062616c616e636500000000000000000000000081525060200191505060405180910390fd5b60008111151561043f576040517f08c379a000000000000000000000000000000000000000000000000000000000815260040180806020018281038252601d8152602001807f416d6f756e74206d7573742062652067726561746572207468616e203000000081525060200191505060405180910390fd5b80600160003373ffffffffffffffffffffffffffffffffffffffff1673ffffffffffffffffffffffffffffffffffffffff168152602001908152602001600020600082825403925050819055508173ffffffffffffffffffffffffffffffffffffffff166108fc829081150290604051600060405180830381858888f193505050501580156104d2573d6000803e3d6000fd5b508173ffffffffffffffffffffffffffffffffffffffff163373ffffffffffffffffffffffffffffffffffffffff167fddf252ad1be2c89b69c2b068fc378daa952ba7f163c4a11628f55a4df523b3ef836040518082815260200191505060405180910390a35050565b60003073ffffffffffffffffffffffffffffffffffffffff1631905090565b6000809054906101000a900473ffffffffffffffffffffffffffffffffffffffff168156fea165627a7a723058207ab0639605b126c49b42b012a2641482271b8a0563645bfe7fb84b5a37cc795b0029",
  "source": "// // SPDX-License-Identifier: MIT\r\n// pragma solidity ^0.5.1;\r\n\r\n// import \"./AggregatorV3Interface.sol\";\r\n\r\n// contract CrossBorderPayment {\r\n//     address public owner;\r\n//     AggregatorV3Interface internal priceFeedETHUSD;\r\n//     uint256 public usdToINR;\r\n\r\n//     mapping(address => mapping(bytes32 => uint128)) public balances;\r\n//     bytes32[] public supportedCurrencies;\r\n\r\n//     event Deposit(address indexed user, uint256 amount, bytes32 currency);\r\n//     event Withdrawal(address indexed user, uint256 amount, bytes32 currency);\r\n//     event CrossBorderPaymentSent(address indexed sender, address indexed receiver, uint256 amount, bytes32 fromCurrency, bytes32 toCurrency);\r\n//     event ExchangeRatesUpdated(uint256 usdToINR);\r\n//     event CurrencyAdded(bytes32 currency);\r\n\r\n//     constructor() public {\r\n//         owner = msg.sender;\r\n//         priceFeedETHUSD = AggregatorV3Interface(0x694AA1769357215DE4FAC081bf1f309aDC325306);\r\n//         supportedCurrencies.push(stringToBytes32(\"INR\"));\r\n//     }\r\n\r\n//     modifier onlyOwner() {\r\n//         require(msg.sender == owner, \"Only owner can call this function\");\r\n//         _;\r\n//     }\r\n\r\n//     function getLatestETHUSDPrice() public view returns (uint256) {\r\n//         (, int256 price, , , ) = priceFeedETHUSD.latestRoundData();\r\n//         return uint256(price);\r\n//     }\r\n\r\n//     function updateExchangeRateINR(uint256 _usdToINR) public onlyOwner {\r\n//         usdToINR = _usdToINR;\r\n//         emit ExchangeRatesUpdated(usdToINR);\r\n//     }\r\n\r\n//     function addSupportedCurrency(string memory currency) public onlyOwner {\r\n//         supportedCurrencies.push(stringToBytes32(currency));\r\n//         emit CurrencyAdded(stringToBytes32(currency));\r\n//     }\r\n\r\n//     function getLatestETHINRPrice() public view returns (uint256) {\r\n//         uint256 ethUSD = getLatestETHUSDPrice();\r\n//         require(ethUSD > 0, \"ETH to USD price must be greater than 0\");\r\n//         return (ethUSD * usdToINR) / 1e8;\r\n//     }\r\n\r\n//     function isSupportedCurrency(string memory currency) internal view returns (bool) {\r\n//         bytes32 currencyBytes = stringToBytes32(currency);\r\n//         for (uint256 i = 0; i < supportedCurrencies.length; i++) {\r\n//             if (supportedCurrencies[i] == currencyBytes) {\r\n//                 return true;\r\n//             }\r\n//         }\r\n//         return false;\r\n//     }\r\n\r\n//     function deposit(string memory currency) public payable {\r\n//         require(msg.value > 0, \"Deposit amount must be greater than 0\");\r\n//         require(isSupportedCurrency(currency), \"Unsupported currency\");\r\n\r\n//         uint256 exchangeRate = getExchangeRate(currency);\r\n//         require(exchangeRate > 0, \"Invalid exchange rate\");\r\n\r\n//         uint256 amountInCurrency = (msg.value * exchangeRate) / 1 ether;\r\n//         balances[msg.sender][stringToBytes32(currency)] += uint128(amountInCurrency);\r\n//         emit Deposit(msg.sender, amountInCurrency, stringToBytes32(currency));\r\n//     }\r\n\r\n//     function withdraw(uint256 amount, string memory currency) public {\r\n//         require(balances[msg.sender][stringToBytes32(currency)] >= amount, \"Insufficient balance\");\r\n\r\n//         uint256 exchangeRate = getExchangeRate(currency);\r\n//         uint256 amountETH = (amount * 1 ether) / exchangeRate;\r\n\r\n//         balances[msg.sender][stringToBytes32(currency)] -= uint128(amount);\r\n//         msg.sender.transfer(amountETH);\r\n//         emit Withdrawal(msg.sender, amount, stringToBytes32(currency));\r\n//     }\r\n\r\n//     function getExchangeRate(string memory currency) internal view returns (uint256) {\r\n//         if (compareStrings(currency, \"INR\")) {\r\n//             uint256 ethINR = getLatestETHINRPrice();\r\n//             require(ethINR > 0, \"ETH to INR price must be greater than 0\");\r\n//             return ethINR;\r\n//         }\r\n//         return 0;\r\n//     }\r\n\r\n//     function compareStrings(string memory a, string memory b) internal pure returns (bool) {\r\n//         return keccak256(abi.encodePacked(a)) == keccak256(abi.encodePacked(b));\r\n//     }\r\n\r\n//     // Correct fallback function for Solidity 0.5.x\r\n//     function() external payable {}\r\n\r\n//     // Proper stringToBytes32 function\r\n//     function stringToBytes32(string memory source) internal pure returns (bytes32 result) {\r\n//         bytes memory tempEmptyStringTest = bytes(source);\r\n//         if (tempEmptyStringTest.length == 0) {\r\n//             return 0x0;\r\n//         }\r\n//         assembly {\r\n//             result := mload(add(source, 32))\r\n//         }\r\n//     }\r\n// } //old smart contract\r\n\r\n// // SPDX-License-Identifier: MIT\r\n// pragma solidity ^0.5.1;\r\n\r\n// import \"./AggregatorV3Interface.sol\";\r\n\r\n// contract CrossBorderPayment {\r\n//     address public owner;\r\n//     AggregatorV3Interface internal priceFeedETHUSD;\r\n//     uint256 public usdToINR;\r\n\r\n//     mapping(address => mapping(bytes32 => uint128)) public balances;\r\n//     bytes32[] public supportedCurrencies;\r\n\r\n//     event Deposit(address indexed user, uint256 amount, bytes32 currency);\r\n//     event Withdrawal(address indexed user, uint256 amount, bytes32 currency);\r\n//     event CrossBorderPaymentSent(address indexed sender, address indexed receiver, uint256 amount, bytes32 fromCurrency, bytes32 toCurrency);\r\n//     event ExchangeRatesUpdated(uint256 usdToINR);\r\n//     event CurrencyAdded(bytes32 currency);\r\n//     event DebugExchangeRate(uint256 exchangeRate); // New Debugging Event\r\n//     event DebugAmountInCurrency(uint256 amountInCurrency); // Debugging Event\r\n\r\n//     constructor() public {\r\n//         owner = msg.sender;\r\n//         priceFeedETHUSD = AggregatorV3Interface(0x694AA1769357215DE4FAC081bf1f309aDC325306); // Sepolia Testnet\r\n//         supportedCurrencies.push(stringToBytes32(\"INR\"));\r\n//     }\r\n\r\n//     modifier onlyOwner() {\r\n//         require(msg.sender == owner, \"Only owner can call this function\");\r\n//         _;\r\n//     }\r\n\r\n//     function getLatestETHUSDPrice() public view returns (uint256) {\r\n//         (, int256 price, , , ) = priceFeedETHUSD.latestRoundData();\r\n//         require(price > 0, \"Invalid ETH to USD price\");\r\n//         return uint256(price);\r\n//     }\r\n\r\n//     function updateExchangeRateINR(uint256 _usdToINR) public onlyOwner {\r\n//         require(_usdToINR > 0, \"Exchange rate must be greater than 0\");\r\n//         usdToINR = _usdToINR;\r\n//         emit ExchangeRatesUpdated(usdToINR);\r\n//     }\r\n\r\n//     function addSupportedCurrency(string memory currency) public onlyOwner {\r\n//         bytes32 currencyBytes = stringToBytes32(currency);\r\n//         require(!isSupportedCurrency(currencyBytes), \"Currency already supported\");\r\n//         supportedCurrencies.push(currencyBytes);\r\n//         emit CurrencyAdded(currencyBytes);\r\n//     }\r\n\r\n//     function getLatestETHINRPrice() public view returns (uint256) {\r\n//         uint256 ethUSD = getLatestETHUSDPrice();\r\n//         return (ethUSD * usdToINR) / 1e8; // Adjust for 8 decimal places\r\n//     }\r\n\r\n//     function isSupportedCurrency(bytes32 currency) internal view returns (bool) {\r\n//         for (uint256 i = 0; i < supportedCurrencies.length; i++) {\r\n//             if (supportedCurrencies[i] == currency) {\r\n//                 return true;\r\n//             }\r\n//         }\r\n//         return false;\r\n//     }\r\n\r\n//     function deposit(string memory currency) public payable {\r\n//         require(msg.value > 0, \"Deposit amount must be greater than 0\");\r\n//         bytes32 currencyBytes = stringToBytes32(currency);\r\n//         require(isSupportedCurrency(currencyBytes), \"Unsupported currency\");\r\n\r\n//         uint256 exchangeRate = getExchangeRate(currency);\r\n//         emit DebugExchangeRate(exchangeRate); // Debug exchange rate\r\n\r\n//         require(exchangeRate > 0, \"Invalid exchange rate\");\r\n\r\n//         uint256 amountInCurrency = (msg.value * exchangeRate) / 1 ether;\r\n//         emit DebugAmountInCurrency(amountInCurrency); // Debugging amount calculated\r\n\r\n//         balances[msg.sender][currencyBytes] += uint128(amountInCurrency);\r\n//         emit Deposit(msg.sender, amountInCurrency, currencyBytes);\r\n//     }\r\n\r\n//     function withdraw(uint256 amount, string memory currency) public {\r\n//         bytes32 currencyBytes = stringToBytes32(currency);\r\n//         require(balances[msg.sender][currencyBytes] >= amount, \"Insufficient balance\");\r\n\r\n//         uint256 exchangeRate = getExchangeRate(currency);\r\n//         uint256 amountETH = (amount * 1 ether) / exchangeRate;\r\n\r\n//         balances[msg.sender][currencyBytes] -= uint128(amount);\r\n//         msg.sender.transfer(amountETH);\r\n//         emit Withdrawal(msg.sender, amount, currencyBytes);\r\n//     }\r\n\r\n//     function getExchangeRate(string memory currency) internal view returns (uint256) {\r\n//         if (compareStrings(currency, \"INR\")) {\r\n//             uint256 ethINR = getLatestETHINRPrice();\r\n//             require(ethINR > 0, \"ETH to INR price must be greater than 0\");\r\n//             return ethINR;\r\n//         }\r\n//         revert(\"Exchange rate for currency not available\");\r\n//     }\r\n\r\n//     function compareStrings(string memory a, string memory b) internal pure returns (bool) {\r\n//         return keccak256(abi.encodePacked(a)) == keccak256(abi.encodePacked(b));\r\n//     }\r\n\r\n//     // Fallback function to handle direct ETH deposits\r\n//     function() external payable {\r\n//         emit Deposit(msg.sender, msg.value, stringToBytes32(\"ETH\"));\r\n//     }\r\n\r\n//     function stringToBytes32(string memory source) internal pure returns (bytes32 result) {\r\n//         bytes memory tempEmptyStringTest = bytes(source);\r\n//         if (tempEmptyStringTest.length == 0) {\r\n//             return 0x0;\r\n//         }\r\n//         assembly {\r\n//             result := mload(add(source, 32))\r\n//         }\r\n//     }\r\n// } // working one\r\n\r\n// // SPDX-License-Identifier: MIT\r\n// pragma solidity ^0.5.1;\r\n\r\n// import \"./AggregatorV3Interface.sol\";\r\n\r\n// contract CrossBorderPayment {\r\n//     address public owner;\r\n//     AggregatorV3Interface internal priceFeedETHUSD;\r\n//     uint256 public usdToINR;\r\n\r\n//     mapping(address => mapping(bytes32 => uint128)) public balances;\r\n//     bytes32[] public supportedCurrencies;\r\n\r\n//     event Deposit(address indexed user, uint256 amount, bytes32 currency);\r\n//     event Withdrawal(address indexed user, uint256 amount, bytes32 currency);\r\n//     event ExchangeRatesUpdated(uint256 usdToINR);\r\n//     event CurrencyAdded(bytes32 currency);\r\n\r\n//     constructor() public {\r\n//         owner = msg.sender;\r\n//         priceFeedETHUSD = AggregatorV3Interface(0x694AA1769357215DE4FAC081bf1f309aDC325306); // Sepolia Testnet\r\n//         supportedCurrencies.push(stringToBytes32(\"INR\"));\r\n//     }\r\n\r\n//     modifier onlyOwner() {\r\n//         require(msg.sender == owner, \"Only owner can call this function\");\r\n//         _;\r\n//     }\r\n\r\n//     function getLatestETHUSDPrice() public view returns (uint256) {\r\n//         (, int256 price, , , ) = priceFeedETHUSD.latestRoundData();\r\n//         require(price > 0, \"Invalid ETH to USD price\");\r\n//         return uint256(price);\r\n//     }\r\n\r\n//     function updateExchangeRateINR(uint256 _usdToINR) public onlyOwner {\r\n//         require(_usdToINR > 0, \"Exchange rate must be greater than 0\");\r\n//         usdToINR = _usdToINR;\r\n//         emit ExchangeRatesUpdated(usdToINR);\r\n//     }\r\n\r\n//     function addSupportedCurrency(string memory currency) public onlyOwner {\r\n//         bytes32 currencyBytes = stringToBytes32(currency);\r\n//         require(!isSupportedCurrency(currencyBytes), \"Currency already supported\");\r\n//         supportedCurrencies.push(currencyBytes);\r\n//         emit CurrencyAdded(currencyBytes);\r\n//     }\r\n\r\n//     function getLatestETHINRPrice() public view returns (uint256) {\r\n//         uint256 ethUSD = getLatestETHUSDPrice();\r\n//         require(usdToINR > 0, \"Exchange rate INR not set\");\r\n//         return (ethUSD * usdToINR) / 1e8; // Adjust for decimals\r\n//     }\r\n\r\n//     function isSupportedCurrency(bytes32 currency) internal view returns (bool) {\r\n//         for (uint256 i = 0; i < supportedCurrencies.length; i++) {\r\n//             if (supportedCurrencies[i] == currency) {\r\n//                 return true;\r\n//             }\r\n//         }\r\n//         return false;\r\n//     }\r\n\r\n//     function deposit(string memory currency) public payable {\r\n//         require(msg.value > 0, \"Deposit amount must be greater than 0\");\r\n//         bytes32 currencyBytes = stringToBytes32(currency);\r\n//         require(isSupportedCurrency(currencyBytes), \"Unsupported currency\");\r\n\r\n//         uint256 exchangeRate = getExchangeRate(currency);\r\n//         require(exchangeRate > 0, \"Invalid exchange rate\");\r\n\r\n//         uint256 amountInCurrency = (msg.value * exchangeRate) / 1 ether;\r\n//         require(amountInCurrency > 0, \"Calculated amount too low\");\r\n\r\n//         balances[msg.sender][currencyBytes] += uint128(amountInCurrency);\r\n//         emit Deposit(msg.sender, amountInCurrency, currencyBytes);\r\n//     }\r\n\r\n//     function withdraw(uint256 amount, string memory currency) public {\r\n//         bytes32 currencyBytes = stringToBytes32(currency);\r\n//         require(balances[msg.sender][currencyBytes] >= amount, \"Insufficient balance\");\r\n\r\n//         uint256 exchangeRate = getExchangeRate(currency);\r\n//         uint256 amountETH = (amount * 1 ether) / exchangeRate;\r\n\r\n//         require(amountETH > 0, \"Calculated ETH amount too low\");\r\n\r\n//         balances[msg.sender][currencyBytes] -= uint128(amount);\r\n//         msg.sender.transfer(amountETH);\r\n//         emit Withdrawal(msg.sender, amount, currencyBytes);\r\n//     }\r\n\r\n//     function getExchangeRate(string memory currency) internal view returns (uint256) {\r\n//         if (compareStrings(currency, \"INR\")) {\r\n//             uint256 ethINR = getLatestETHINRPrice();\r\n//             require(ethINR > 0, \"ETH to INR price must be greater than 0\");\r\n//             return ethINR;\r\n//         }\r\n//         revert(\"Exchange rate for currency not available\");\r\n//     }\r\n\r\n//     function compareStrings(string memory a, string memory b) internal pure returns (bool) {\r\n//         return keccak256(abi.encodePacked(a)) == keccak256(abi.encodePacked(b));\r\n//     }\r\n\r\n//     function stringToBytes32(string memory source) internal pure returns (bytes32 result) {\r\n//         bytes memory tempEmptyStringTest = bytes(source);\r\n//         if (tempEmptyStringTest.length == 0) {\r\n//             return 0x0;\r\n//         }\r\n//         assembly {\r\n//             result := mload(add(source, 32))\r\n//         }\r\n//     }\r\n\r\n//     function() external payable {\r\n//         emit Deposit(msg.sender, msg.value, stringToBytes32(\"ETH\"));\r\n//     }\r\n// } // last working \r\n\r\n\r\n// // SPDX-License-Identifier: MIT\r\n// pragma solidity ^0.5.1;\r\n\r\n// contract CrossBorderPayment {\r\n//     address public owner;\r\n\r\n//     mapping(address => uint256) public balances;\r\n\r\n//     event Deposit(address indexed user, uint256 amount);\r\n//     event Transfer(address indexed sender, address indexed receiver, uint256 amount);\r\n//     event Withdrawal(address indexed user, uint256 amount);\r\n\r\n//     constructor() public {\r\n//         owner = msg.sender;\r\n//     }\r\n\r\n//     modifier onlyOwner() {\r\n//         require(msg.sender == owner, \"Only owner can call this function\");\r\n//         _;\r\n//     }\r\n\r\n//     // Function for users to deposit ETH into the smart contract\r\n//     function deposit() public payable {\r\n//         require(msg.value > 0, \"Deposit amount must be greater than 0\");\r\n//         balances[msg.sender] += msg.value;\r\n//         emit Deposit(msg.sender, msg.value);\r\n//     }\r\n\r\n//     // Function to transfer ETH balance from the sender to another user8\r\n//     function transfer(address receiver, uint256 amount) public {\r\n//         require(balances[msg.sender] >= amount, \"Insufficient balance\");\r\n//         require(receiver != address(0), \"Invalid receiver address\");\r\n\r\n//         balances[msg.sender] -= amount;\r\n//         balances[receiver] += amount;\r\n\r\n//         emit Transfer(msg.sender, receiver, amount);\r\n//     }\r\n\r\n//     // Function for users to withdraw their ETH\r\n//     function withdraw(uint256 amount) public {\r\n//         require(balances[msg.sender] >= amount, \"Insufficient balance\");\r\n\r\n//         balances[msg.sender] -= amount;\r\n//         msg.sender.transfer(amount);\r\n\r\n//         emit Withdrawal(msg.sender, amount);\r\n//     }\r\n\r\n//     // Function to get the user's current balance\r\n//     function getBalance(address user) public view returns (uint256) {\r\n//         return balances[user];\r\n//     }\r\n\r\n//     // Fallback function to handle unexpected ETH deposits\r\n//     function() external payable {\r\n//         deposit();\r\n//     }\r\n// } \r\n\r\n// SPDX-License-Identifier: MIT\r\npragma solidity ^0.5.1;\r\n\r\ncontract CrossBorderPayment {\r\n    address public owner;\r\n\r\n    event Deposit(address indexed user, uint256 amount);\r\n    event Transfer(address indexed from, address indexed to, uint256 amount);\r\n\r\n    mapping(address => uint256) public balances;\r\n\r\n    constructor() public {\r\n        owner = msg.sender;\r\n    }\r\n\r\n    modifier onlyOwner() {\r\n        require(msg.sender == owner, \"Only owner can call this function\");\r\n        _;\r\n    }\r\n\r\n    function deposit() public payable {\r\n        require(msg.value > 0, \"Deposit amount must be greater than 0\");\r\n        balances[msg.sender] += msg.value;\r\n        emit Deposit(msg.sender, msg.value);\r\n    }\r\n\r\n    function transferTo(address payable recipient, uint256 amount) public {\r\n        require(balances[msg.sender] >= amount, \"Insufficient balance\");\r\n        require(amount > 0, \"Amount must be greater than 0\");\r\n\r\n        balances[msg.sender] -= amount;\r\n        recipient.transfer(amount);\r\n\r\n        emit Transfer(msg.sender, recipient, amount);\r\n    }\r\n\r\n    function getContractBalance() public view returns (uint256) {\r\n        return address(this).balance;\r\n    }\r\n\r\n    function() external payable {\r\n        deposit();\r\n    }\r\n}",
  "sourcePath": "D:\\codes\\HackIndia\\cross-border-payment\\contracts\\CrossBorderPayment.sol",
  "compiler": {
    "name": "solc",
    "version": "0.5.1+commit.c8a2cb62.Emscripten.clang"
  },
  "schemaVersion": "3.4.16",
  "updatedAt": "2024-11-09T07:43:30.245Z",
  "devdoc": {
    "methods": {}
  },
  "userdoc": {
    "methods": {}
  }
}